{
    "contractName": "Swap",
    "abi": [
        {
            "inputs": [
                {
                    "internalType": "address",
                    "name": "_factory",
                    "type": "address"
                },
                {
                    "internalType": "address",
                    "name": "_WETH",
                    "type": "address"
                }
            ],
            "stateMutability": "nonpayable",
            "type": "constructor"
        },
        {
            "inputs": [],
            "name": "InsufficientBalance",
            "type": "error"
        },
        {
            "inputs": [],
            "name": "InvalidAmount",
            "type": "error"
        },
        {
            "inputs": [
                {
                    "internalType": "address",
                    "name": "owner",
                    "type": "address"
                }
            ],
            "name": "OwnableInvalidOwner",
            "type": "error"
        },
        {
            "inputs": [
                {
                    "internalType": "address",
                    "name": "account",
                    "type": "address"
                }
            ],
            "name": "OwnableUnauthorizedAccount",
            "type": "error"
        },
        {
            "inputs": [],
            "name": "WithdrawFailed",
            "type": "error"
        },
        {
            "inputs": [],
            "name": "ZeroAddress",
            "type": "error"
        },
        {
            "anonymous": false,
            "inputs": [
                {
                    "indexed": true,
                    "internalType": "address",
                    "name": "previousOwner",
                    "type": "address"
                },
                {
                    "indexed": true,
                    "internalType": "address",
                    "name": "newOwner",
                    "type": "address"
                }
            ],
            "name": "OwnershipTransferred",
            "type": "event"
        },
        {
            "anonymous": false,
            "inputs": [
                {
                    "indexed": true,
                    "internalType": "address",
                    "name": "user",
                    "type": "address"
                },
                {
                    "indexed": false,
                    "internalType": "address",
                    "name": "tokenOut",
                    "type": "address"
                },
                {
                    "indexed": false,
                    "internalType": "uint256",
                    "name": "amountIn",
                    "type": "uint256"
                },
                {
                    "indexed": false,
                    "internalType": "uint256",
                    "name": "amountOut",
                    "type": "uint256"
                }
            ],
            "name": "SwapETHForTokens",
            "type": "event"
        },
        {
            "anonymous": false,
            "inputs": [
                {
                    "indexed": true,
                    "internalType": "address",
                    "name": "user",
                    "type": "address"
                },
                {
                    "indexed": false,
                    "internalType": "address",
                    "name": "tokenIn",
                    "type": "address"
                },
                {
                    "indexed": false,
                    "internalType": "uint256",
                    "name": "amountIn",
                    "type": "uint256"
                },
                {
                    "indexed": false,
                    "internalType": "uint256",
                    "name": "amountOut",
                    "type": "uint256"
                }
            ],
            "name": "SwapTokensForETH",
            "type": "event"
        },
        {
            "anonymous": false,
            "inputs": [
                {
                    "indexed": true,
                    "internalType": "address",
                    "name": "user",
                    "type": "address"
                },
                {
                    "indexed": false,
                    "internalType": "address",
                    "name": "tokenIn",
                    "type": "address"
                },
                {
                    "indexed": false,
                    "internalType": "address",
                    "name": "tokenOut",
                    "type": "address"
                },
                {
                    "indexed": false,
                    "internalType": "uint256",
                    "name": "amountIn",
                    "type": "uint256"
                },
                {
                    "indexed": false,
                    "internalType": "uint256",
                    "name": "amountOut",
                    "type": "uint256"
                }
            ],
            "name": "SwapTokensForTokens",
            "type": "event"
        },
        {
            "anonymous": false,
            "inputs": [
                {
                    "indexed": true,
                    "internalType": "address",
                    "name": "to",
                    "type": "address"
                },
                {
                    "indexed": false,
                    "internalType": "uint256",
                    "name": "amount",
                    "type": "uint256"
                }
            ],
            "name": "TransferedETH",
            "type": "event"
        },
        {
            "anonymous": false,
            "inputs": [
                {
                    "indexed": true,
                    "internalType": "address",
                    "name": "to",
                    "type": "address"
                },
                {
                    "indexed": false,
                    "internalType": "uint256",
                    "name": "amount",
                    "type": "uint256"
                }
            ],
            "name": "TransferedTokens",
            "type": "event"
        },
        {
            "anonymous": false,
            "inputs": [
                {
                    "indexed": true,
                    "internalType": "address",
                    "name": "to",
                    "type": "address"
                },
                {
                    "indexed": false,
                    "internalType": "uint256",
                    "name": "amount",
                    "type": "uint256"
                }
            ],
            "name": "Withdraw",
            "type": "event"
        },
        {
            "inputs": [],
            "name": "WETH",
            "outputs": [
                {
                    "internalType": "address",
                    "name": "",
                    "type": "address"
                }
            ],
            "stateMutability": "view",
            "type": "function"
        },
        {
            "inputs": [],
            "name": "factory",
            "outputs": [
                {
                    "internalType": "address",
                    "name": "",
                    "type": "address"
                }
            ],
            "stateMutability": "view",
            "type": "function"
        },
        {
            "inputs": [],
            "name": "owner",
            "outputs": [
                {
                    "internalType": "address",
                    "name": "",
                    "type": "address"
                }
            ],
            "stateMutability": "view",
            "type": "function"
        },
        {
            "inputs": [],
            "name": "renounceOwnership",
            "outputs": [],
            "stateMutability": "nonpayable",
            "type": "function"
        },
        {
            "inputs": [],
            "name": "router",
            "outputs": [
                {
                    "internalType": "contract IUniswapV2Router02",
                    "name": "",
                    "type": "address"
                }
            ],
            "stateMutability": "view",
            "type": "function"
        },
        {
            "inputs": [
                {
                    "internalType": "address",
                    "name": "tokenOut",
                    "type": "address"
                },
                {
                    "internalType": "uint256",
                    "name": "amountOutMin",
                    "type": "uint256"
                }
            ],
            "name": "swapETHforTokens",
            "outputs": [],
            "stateMutability": "payable",
            "type": "function"
        },
        {
            "inputs": [
                {
                    "internalType": "address",
                    "name": "tokenIn",
                    "type": "address"
                },
                {
                    "internalType": "uint256",
                    "name": "amountIn",
                    "type": "uint256"
                },
                {
                    "internalType": "uint256",
                    "name": "amountOutMin",
                    "type": "uint256"
                }
            ],
            "name": "swapTokensForETH",
            "outputs": [],
            "stateMutability": "nonpayable",
            "type": "function"
        },
        {
            "inputs": [
                {
                    "internalType": "address",
                    "name": "tokenIn",
                    "type": "address"
                },
                {
                    "internalType": "address",
                    "name": "tokenOut",
                    "type": "address"
                },
                {
                    "internalType": "uint256",
                    "name": "amountIn",
                    "type": "uint256"
                },
                {
                    "internalType": "uint256",
                    "name": "amountOutMin",
                    "type": "uint256"
                }
            ],
            "name": "swapTokensForToken",
            "outputs": [],
            "stateMutability": "nonpayable",
            "type": "function"
        },
        {
            "inputs": [
                {
                    "internalType": "address",
                    "name": "to",
                    "type": "address"
                },
                {
                    "internalType": "uint256",
                    "name": "amount",
                    "type": "uint256"
                }
            ],
            "name": "transferETH",
            "outputs": [],
            "stateMutability": "nonpayable",
            "type": "function"
        },
        {
            "inputs": [
                {
                    "internalType": "address",
                    "name": "newOwner",
                    "type": "address"
                }
            ],
            "name": "transferOwnership",
            "outputs": [],
            "stateMutability": "nonpayable",
            "type": "function"
        },
        {
            "inputs": [
                {
                    "internalType": "address",
                    "name": "token",
                    "type": "address"
                },
                {
                    "internalType": "address",
                    "name": "to",
                    "type": "address"
                },
                {
                    "internalType": "uint256",
                    "name": "amount",
                    "type": "uint256"
                }
            ],
            "name": "transferTokens",
            "outputs": [],
            "stateMutability": "nonpayable",
            "type": "function"
        },
        {
            "inputs": [],
            "name": "withdraw",
            "outputs": [],
            "stateMutability": "nonpayable",
            "type": "function"
        }
    ],
    "bytecode": "60e03461011157601f610dd438819003918201601f19168301916001600160401b0383118484101761011557808492604094855283398101031261011157610052602061004b83610129565b9201610129565b9033156100fe575f8054336001600160a01b0319821681178355604051949290916001600160a01b0316907f8be0079c531659141344cd1fd0a4f28419497f9722a3daafe3b4186f6b6457e09080a360a05260c08190526001600160a01b0316608052610c96908161013e823960805181818160b2015281816101e5015281816104c0015261063d015260a05181818161025b015281816104300152610588015260c051816103be0152f35b631e4fbdf760e01b5f525f60045260245ffd5b5f80fd5b634e487b7160e01b5f52604160045260245ffd5b51906001600160a01b03821682036101115756fe60806040526004361015610011575f80fd5b5f3560e01c80633ccfd60b146109e8578063715018a6146109915780637b1a4909146109085780638da5cb5b146108e1578063a64b6e5f1461079f578063a7d09b9c146105b7578063ad5c464814610573578063b306bc40146103ed578063c45a0155146103a9578063e15cc8da1461016a578063f2fde38b146100e55763f887ea401461009d575f80fd5b346100e1575f3660031901126100e1576040517f00000000000000000000000000000000000000000000000000000000000000006001600160a01b03168152602090f35b5f80fd5b346100e15760203660031901126100e1576100fe610a55565b610106610c3a565b6001600160a01b03168015610157575f80546001600160a01b03198116831782556001600160a01b0316907f8be0079c531659141344cd1fd0a4f28419497f9722a3daafe3b4186f6b6457e09080a3005b631e4fbdf760e01b5f525f60045260245ffd5b346100e15760603660031901126100e157610183610a55565b6040516323b872dd60e01b8152336004820152306024808301919091523560448083018290526001600160a01b03841692903591906020816064815f885af1801561033c5761038c575b5060405163095ea7b360e01b81526001600160a01b037f0000000000000000000000000000000000000000000000000000000000000000166004820181905260248201839052906020816044815f895af1801561033c5761035f575b5060405193610239606086610a81565b6002855260403660208701378061024f86610b0e565b5261025985610b2f565b7f00000000000000000000000000000000000000000000000000000000000000006001600160a01b03169081905215908115610356575b50610347576040516318cbafe560e01b8152935f9185918290849082906102c090429033908b8b60048701610c01565b03925af192831561033c577ff648388853a921938c2f7c68a5576a93c70cef958c5f13b690650711ed4982489361031c575b50604080516001600160a01b0390951685526020850191909152830152339180606081015b0390a2005b610337903d805f833e61032f8183610a81565b810190610b3f565b6102f2565b6040513d5f823e3d90fd5b63d92e233d60e01b5f5260045ffd5b90501586610290565b6103809060203d602011610385575b6103788183610a81565b810190610af6565b610229565b503d61036e565b6103a49060203d602011610385576103788183610a81565b6101cd565b346100e1575f3660031901126100e1576040517f00000000000000000000000000000000000000000000000000000000000000006001600160a01b03168152602090f35b60403660031901126100e157610401610a55565b60243534156105645760405190610419606083610a81565b60028252604036602084013761042e82610b0e565b7f00000000000000000000000000000000000000000000000000000000000000006001600160a01b03169081905261046583610b2f565b6001600160a01b03851690819052901590811561055b575b50610347575f6104af926040518094819263fb3bdb4160e01b8352856004840152608060248401526084830190610bc5565b3360448301524260648301520381347f00000000000000000000000000000000000000000000000000000000000000006001600160a01b03165af190811561033c577f4c8d20e37a3970898f750fee782c21410aa4fe6513487f5b3abc91b59be074479261031792610543575b50604080516001600160a01b03909516855234602086015284015233929081906060820190565b610556903d805f833e61032f8183610a81565b61051c565b9050158461047d565b631e9acf1760e31b5f5260045ffd5b346100e1575f3660031901126100e1576040517f00000000000000000000000000000000000000000000000000000000000000006001600160a01b03168152602090f35b346100e15760803660031901126100e1576105d0610a55565b6105d8610a6b565b6040516323b872dd60e01b8152336004820152306024820152604480359082018190526001600160a01b03939093169260648035939192906020908290815f895af1801561033c57610782575b5060405163095ea7b360e01b81526001600160a01b037f0000000000000000000000000000000000000000000000000000000000000000166004820181905260248201849052906020816044815f8a5af1801561033c57610765575b5060405190610691606083610a81565b600282526040366020840137856106a783610b0e565b526106b182610b2f565b6001600160a01b03909316928390528215801561075d575b610347576040516338ed173960e01b8152915f9183918290849082906106f890429033908d8d60048701610c01565b03925af1801561033c57610745575b506040519384526020840152604083015260608201527f6c60dfa77621202c19886a83d996f4a7c764b2200c5f7cad231798add53179c260803392a2005b610758903d805f833e61032f8183610a81565b610707565b5085156106c9565b61077d9060203d602011610385576103788183610a81565b610681565b61079a9060203d602011610385576103788183610a81565b610625565b346100e15760603660031901126100e1576107b8610a55565b6107c0610a6b565b604435916107cc610c3a565b6040516370a0823160e01b81523060048201526001600160a01b03919091169190602081602481865afa801561033c5784915f916108ac575b501061089d5760405163a9059cbb60e01b81526001600160a01b03821660048201526024810184905291602090839060449082905f905af190811561033c577fc30a52f8fae7128a257eb674150e240bd2beea5f31bb66848a9f28c12d267b5292602092610882575b506040519384526001600160a01b031692a2005b61089890833d8511610385576103788183610a81565b61086e565b63162908e360e11b5f5260045ffd5b9150506020813d6020116108d9575b816108c860209383610a81565b810103126100e15783905185610805565b3d91506108bb565b346100e1575f3660031901126100e1575f546040516001600160a01b039091168152602090f35b346100e15760403660031901126100e157610921610a55565b6024359061092d610c3a565b814710610564575f80808085855af1610944610ab7565b5015610982576040519182526001600160a01b0316907f22c26abbcdc9cc35142c7f35c22492948089c0afeb17f12b538b58eb0541991d90602090a2005b631d42c86760e21b5f5260045ffd5b346100e1575f3660031901126100e1576109a9610c3a565b5f80546001600160a01b0319811682556001600160a01b03167f8be0079c531659141344cd1fd0a4f28419497f9722a3daafe3b4186f6b6457e08280a3005b346100e1575f3660031901126100e157610a00610c3a565b474715610564575f8080809360018060a01b038254165af1610a20610ab7565b501561098257476040519081527f884edad9ce6fa2440d8a54cc123490eb96d2768479d49ff9c7366125a942436460203392a2005b600435906001600160a01b03821682036100e157565b602435906001600160a01b03821682036100e157565b90601f8019910116810190811067ffffffffffffffff821117610aa357604052565b634e487b7160e01b5f52604160045260245ffd5b3d15610af1573d9067ffffffffffffffff8211610aa35760405191610ae6601f8201601f191660200184610a81565b82523d5f602084013e565b606090565b908160209103126100e1575180151581036100e15790565b805115610b1b5760200190565b634e487b7160e01b5f52603260045260245ffd5b805160011015610b1b5760400190565b6020818303126100e15780519067ffffffffffffffff82116100e157019080601f830112156100e15781519167ffffffffffffffff8311610aa3578260051b906020820193610b916040519586610a81565b84526020808501928201019283116100e157602001905b828210610bb55750505090565b8151815260209182019101610ba8565b90602080835192838152019201905f5b818110610be25750505090565b82516001600160a01b0316845260209384019390920191600101610bd5565b9192608093610c2692979695978452602084015260a0604084015260a0830190610bc5565b6001600160a01b0390951660608201520152565b5f546001600160a01b03163303610c4d57565b63118cdaa760e01b5f523360045260245ffdfea2646970667358221220cae4290f7f12d986b9bb17cf4661ab7bf789f9edb269210db1b6954a7c3db33364736f6c634300081e0033",
    "sourcePath": "/home/denis/swap_task/src/swap.sol",
    "compiler": {
        "name": "solc",
        "version": "0.8.30+commit.73712a01"
    },
    "functionHashes": {
        "WETH()": "ad5c4648",
        "factory()": "c45a0155",
        "owner()": "8da5cb5b",
        "renounceOwnership()": "715018a6",
        "router()": "f887ea40",
        "swapETHforTokens(address,uint256)": "b306bc40",
        "swapTokensForETH(address,uint256,uint256)": "e15cc8da",
        "swapTokensForToken(address,address,uint256,uint256)": "a7d09b9c",
        "transferETH(address,uint256)": "7b1a4909",
        "transferOwnership(address)": "f2fde38b",
        "transferTokens(address,address,uint256)": "a64b6e5f",
        "withdraw()": "3ccfd60b"
    },
    "gasEstimates": {
        "creation": {
            "codeDepositCost": "644400",
            "executionCost": "infinite",
            "totalCost": "infinite"
        },
        "external": {
            "WETH()": "infinite",
            "factory()": "infinite",
            "owner()": "2337",
            "renounceOwnership()": "28064",
            "router()": "infinite",
            "swapETHforTokens(address,uint256)": "infinite",
            "swapTokensForETH(address,uint256,uint256)": "infinite",
            "swapTokensForToken(address,address,uint256,uint256)": "infinite",
            "transferETH(address,uint256)": "infinite",
            "transferOwnership(address)": "28382",
            "transferTokens(address,address,uint256)": "infinite",
            "withdraw()": "infinite"
        }
    }
}